:100000000C9494000C94BC000C94BC000C94BC00A8
:100010000C94BC000C94BC000C94BC000C94BC0070
:100020000C94BC000C94BC000C94BC000C94BC0060
:100030000C94BC000C94BC000C94BC000C94BC0050
:100040000C94E6030C94BC000C9456040C943004FD
:100050000C94BC000C94BC000C94BC000C94BC0030
:100060000C94BC000C94BC004552523A434F4D4D89
:10007000414E44004552523A42555359004552525E
:100080003A42555359004552523A434F4D4D414E15
:10009000445F544F4F5F4C4F4E470041434B3A0033
:1000A0004E6F7420436F6E6E6563746564002C54EC
:1000B000323A004E6F7420436F6E6E6563746564F0
:1000C000005354415455533A54313A004E41004480
:1000D0004154413A000000000800020100000304FE
:1000E00007000000000000000000000000250028BC
:1000F000002B0000000000240027002A0004040454
:1001000004040404040202020202020303030303C0
:10011000030102040810204080010204081020019D
:10012000020408102000E60811241FBECFEFD8E01B
:10013000DEBFCDBF11E0A0E0B1E0E4E5F7E102C031
:1001400005900D92AA35B107D9F722E0AAE5B1E0F2
:1001500001C01D92A336B207E1F710E0C4E9D0E078
:1001600004C02197FE010E948B0BC339D107C9F748
:100170000E9488040C94A80B0C9400008CBD9DBDBB
:10018000089590E0FC01EF5EFE4F249183509F4F55
:10019000FC018491882399F090E0880F991FFC015D
:1001A000ED50FF4FA591B491FC01E751FF4F8591B0
:1001B00094918FB7F894EC91E22BEC938FBF089554
:1001C00090E0FC01EB52FF4F2491FC01EF5EFE4FEB
:1001D0003491FC01E350FF4FE491EE23C9F0222358
:1001E00039F0233001F1A8F4213019F1223029F13E
:1001F000F0E0EE0FFF1FE751FF4FA591B4918FB7CD
:10020000F894EC91611126C030953E233C938FBF4A
:1002100008952730A9F02830C9F0243049F780919B
:1002200080008F7D03C0809180008F778093800055
:10023000DFCF84B58F7784BDDBCF84B58F7DFBCFD7
:100240008091B0008F778093B000D2CF8091B000C2
:100250008F7DF9CF3E2BDACFAF92BF92CF92DF9254
:10026000EF92FF920F931F93CF93DF936C017B016B
:100270008B01040F151FEB015E01AE18BF08C017FC
:10028000D10759F06991D601ED91FC910190F0816F
:10029000E02DC6010995892B79F7C501DF91CF9132
:1002A0001F910F91FF90EF90DF90CF90BF90AF9094
:1002B0000895FC01538D448D252F30E0842F90E06C
:1002C000821B930B541710F0CF9608950197089551
:1002D000FC01918D828D981761F0A28DAE0FBF2F1A
:1002E000B11D5D968C91928D9F5F9F73928F90E070
:1002F00008958FEF9FEF0895FC01918D828D9817DF
:1003000031F0828DE80FF11D858D90E008958FEF1B
:100310009FEF0895FC01918D228D892F90E0805CE4
:100320009F4F821B91098F739927089586EC91E066
:100330000E948A0121E0892B09F420E0822F089590
:1003400080E090E0892B29F00E94960181110C94A5
:1003500000000895FC01A48DA80FB92FB11DA35A68
:10036000BF4F2C91848D90E001968F739927848FD5
:10037000A689B7892C93A089B1898C9183708064F8
:100380008C93938D848D981306C00288F389E02D99
:1003900080818F7D80830895EF92FF920F931F934A
:1003A000CF93DF93EC0181E0888F9B8D8C8D981328
:1003B0001AC0E889F989808185FF15C09FB7F89434
:1003C000EE89FF896083E889F98980818370806480
:1003D00080839FBF81E090E0DF91CF911F910F91CB
:1003E000FF90EF900895F62E0B8D10E00F5F1F4FDA
:1003F0000F731127E02E8C8D8E110CC00FB607FCE9
:10040000FACFE889F989808185FFF5CFCE010E9476
:10041000AA01F1CFEB8DEC0FFD2FF11DE35AFF4F39
:10042000F0829FB7F8940B8FEA89FB898081806204
:10043000CFCF682F86EC91E00C94CC010F931F93E3
:10044000CF93DF938C01D0E0C0E0F801EC0FFD1FEB
:100450006491662341F086EC91E00E94CC01892BE7
:1004600011F02196F2CFCE01DF91CF911F910F9124
:100470000895CF93DF93EC01888D8823B9F0AA8982
:10048000BB89E889F9898C9185FD03C0808186FD4F
:100490000DC00FB607FCF7CF8C9185FFF2CF80819E
:1004A00085FFEDCFCE010E94AA01E9CFDF91CF9168
:1004B000089508958EBD00000DB407FEFDCF8EB5E2
:1004C00008951F93CF93DF93C82F162FD42F85E560
:1004D00090E00E94BE0060E08C2F0E94E000812F1F
:1004E00080680E945A028D2F0E945A0261E08C2F70
:1004F000DF91CF911F910C94E000CF93C82F44E17E
:1005000060E00E9461024091020161E08C2F0E9434
:10051000610240E062E08C2F0E94610246E160E0EF
:100520008C2FCF910C946102CF93DF93C82FD62FDD
:1005300085E590E00E94BE0060E08C2F0E94E00004
:100540008D2F0E945A0280E00E945A02D82F61E04B
:100550008C2F0E94E0008D2FDF91CF910895FC0138
:1005600001900020E9F73197AF01481B590BBC01FE
:1005700086EC91E00C942C018F929F92AF92BF92E7
:100580000F931F93CF93DF93CDB7DEB7A1970FB62D
:10059000F894DEBF0FBECDBF19A2423008F44AE086
:1005A0008E010F5D1F4F842E912CB12CA12CA50123
:1005B00094010E944F0BE62FB901CA01EA30F4F40E
:1005C000E05DD801EE938D01232B242B252B79F7A9
:1005D00090E080E0109719F0CD010E94AF02A19643
:1005E0000FB6F894DEBF0FBECDBFDF91CF911F9144
:1005F0000F91BF90AF909F908F900895E95CE1CFED
:10060000CF93DF930E941E02EC0181E391E00E94F0
:10061000AF028C0F9D1FDF91CF9108954F925F9293
:100620006F927F928F929F92AF92BF92CF92DF9202
:10063000EF92FF920F931F93CF936B017C01742E67
:10064000AC019B010E944A0B882399F084E391E05E
:10065000CF911F910F91FF90EF90DF90CF90BF90BF
:10066000AF909F908F907F906F905F904F900C9481
:10067000AF0246015701E894B7F82FEF3FEF4FE77D
:100680005FE7C501B4010E944A0B81110DC02FEF35
:100690003FEF4FE75FE7C501B4010E9480091816DC
:1006A0001CF488E391E0D4CF2FEF3FEF4FE75FE4F6
:1006B000C701B6010E94D80A18161CF48CE391E019
:1006C000C7CF2FEF3FEF4FE75FECC701B6010E94A6
:1006D000800987FDF3CF20E030E0A901C701B60112
:1006E0000E94800910E000E087FF08C08DE20E94B0
:1006F00019028C01F7FAF094F7F8F094C0E060E08A
:1007000070E080E09FE37C1641F020E030E040E2C2
:1007100051E40E948509CF5FF6CFA70196010E94A0
:1007200014092B013C010E94F7094B015C014AE0CE
:100730000E94BC027C01E00EF11ECC23B1F1C50188
:10074000B4010E94260A9B01AC01C301B2010E94C0
:1007500013094B015C018EE20E941902E80EF91E9A
:10076000C15018F120E030E040E251E4C501B4018D
:100770000E94DD0A2B013C010E94F7094B01B12CBC
:10078000A12C4AE0C501B4010E94BC02E80EF91E8A
:10079000C501B4010E94260A9B01AC01C301B2014C
:1007A0000E9413094B015C01DBCFC701CF911F9160
:1007B0000F91FF90EF90DF90CF90BF90AF909F9000
:1007C0008F907F906F905F904F9008951F920F923F
:1007D0000FB60F9211242F933F938F939F93AF9354
:1007E000BF938091C2019091C301A091C401B091C7
:1007F000C5013091C10123E0230F2D3758F5019633
:10080000A11DB11D2093C1018093C2019093C3012A
:10081000A093C401B093C5018091BD019091BE0128
:10082000A091BF01B091C0010196A11DB11D80939F
:10083000BD019093BE01A093BF01B093C001BF91D1
:10084000AF919F918F913F912F910F900FBE0F907D
:100850001F90189526E8230F0296A11DB11DD2CF37
:100860001F920F920FB60F9211242F933F934F9325
:100870005F936F937F938F939F93AF93BF93EF9308
:10088000FF9386EC91E00E94AA01FF91EF91BF9146
:10089000AF919F918F917F916F915F914F913F9118
:1008A0002F910F900FBE0F901F9018951F920F92CF
:1008B0000FB60F9211242F938F939F93EF93FF9373
:1008C000E091D601F091D7018081E091DC01F091B7
:1008D000DD0182FD1BC090818091DF018F5F8F73EE
:1008E0002091E001821741F0E091DF01F0E0EA534E
:1008F000FE4F958F8093DF01FF91EF919F918F9134
:100900002F910F900FBE0F901F9018958081F4CFFC
:10091000789484B5826084BD84B5816084BD85B5DA
:10092000826085BD85B5816085BD80916E008160E6
:1009300080936E001092810080918100826080938C
:10094000810080918100816080938100809180008E
:100950008160809380008091B10084608093B100B9
:100960008091B00081608093B00080917A008460B3
:1009700080937A0080917A00826080937A008091DF
:100980007A00816080937A0080917A0080688093F9
:100990007A001092C100E091D601F091D70182E077
:1009A0008083E091D201F091D3011082E091D401D3
:1009B000F091D5018FEC80831092DE01E091DA0195
:1009C000F091DB0186E08083E091D801F091D901BC
:1009D000808180618083E091D801F091D90180818C
:1009E00088608083E091D801F091D901808180688E
:1009F0008083E091D801F091D90180818F7D80833F
:100A000061E08AE00E94E0008AE00E94C10061E0AB
:100A100089E00E94E00089E00E94C100CFB7F8940D
:100A200080915A01811124C0E7E0F1E08491EBE16B
:100A3000F1E09491E82FF0E0EE0FFF1FED50FF4F33
:100A4000A591B491EC91E92321F461E08AE00E9440
:100A5000E0008AE00E94C1008CB580618CBD8CB53D
:100A600080648CBD8DE00E94C1008BE00E94C100BB
:100A700080915A018F5F80935A01CFBF8AE00E9414
:100A80007D0289E00E947D02212C33243394D1E041
:100A9000C1E08091A001811104C080919F01882351
:100AA00001F12FB7F8948091C2019091C301A091F8
:100AB000C401B091C5012FBF40919B0150919C0191
:100AC00060919D0170919E01841B950BA60BB70B45
:100AD000893E9340A105B10520F01092A00110922B
:100AE0009F0111E4F12EFA94FF2009F42CC186EC49
:100AF00091E00E948A01181619060CF024C186ECB8
:100B000091E00E9468019FB7F8944091C201509112
:100B1000C3016091C4017091C5019FBF40939B01C7
:100B200050939C0160939D0170939E018B3309F05B
:100B3000F0C080919F01882329F086E890E00E9410
:100B40000003A8C0E091A001EE2309F4A3C0F0E0E7
:100B5000E55AFE4F1082EBE5F1E001900020E9F745
:100B60008F010C551140C8010C97059708F04DC036
:100B700047E050E060E471E08BE591E00E949A0B61
:100B8000892B09F042C0C0906201EEEBEC0DE3311D
:100B9000E0F5F0E0E45EFE4F808187FD36C0809195
:100BA00063018C3291F580916401B0EDEB2EE80E7B
:100BB00035E03E1550F1809165018C3231F5E6E665
:100BC000F1E020E030E0A9018191A0EDDA2ED80E0D
:100BD00069E06D15D0F0AAE0B0E00E94800B9B01A7
:100BE000AC012D0D311D411D511DCF018B55914083
:100BF0008017910748F3DA01C9010197A109B109EA
:100C00008F3F9F4FA105B10580F168E471E08BE54E
:100C100091E00E94910B892B09F441C045E050E01E
:100C20006EE471E08BE591E00E949A0B892B79F4D8
:100C30000630110561F480916001EEEBE80FE331BD
:100C400030F4F0E0E45EFE4F908197FF40C045E055
:100C500050E064E571E08BE591E00E949A0B892BEE
:100C600009F442C088E690E06ACF8091A40188230D
:100C700019F08DE790E063CFC0920101E09200018E
:100C80003093A2012093A101C093A301C093A401BA
:100C9000C093B1011092A00110929F0124CF8091C6
:100CA000A401882319F084E790E049CF80910301E3
:100CB0008093010180910901809300011092A201AB
:100CC0001092A101C093A301C093A401E3CF80932C
:100CD00001018091A401811104C0809109018093D8
:100CE00000011092A301F0CF0630110509F0BACF30
:100CF000809160018053863008F0B4CF809300016A
:100D00008091A4018111EDCF8091030180930101B5
:100D1000E8CF8D3009F4E7CE8A3009F4E4CEE091D3
:100D2000A001EF3368F490919F01911109C091E007
:100D30009E0F9093A001F0E0E55AFE4F8083D3CE42
:100D4000C0939F01D0CE8091A401882309F448C0AC
:100D50008091BC01811144C0E0910101E093030145
:100D6000E2548FEFE33120F4F0E0E45EFE4F808147
:100D70008093020180910001809309018AE00E9422
:100D80007D0289E00E947D021092A401C0930801B7
:100D90008091A301882321F10091A1011091A2016A
:100DA0008BE990E00E941E02B80190E080E04AE0EA
:100DB0000E94BC028CE20E941902809103010E94F1
:100DC00019028CE20E9419026091090170E090E022
:100DD00080E04AE00E94BC0281E391E00E94AF0201
:100DE0008FB7F8948090C2019090C301A090C40185
:100DF000B090C5018FBF209109016AEF70E080E0DB
:100E000090E0222329F030E0A8EEB3E00E94710BBD
:100E10002091BC0121115AC020910801211116C056
:100E20000091B8011091B9012091BA013091BB0134
:100E300075016401C01AD10AE20AF30A970186011A
:100E4000061717072807390708F440C08092B80131
:100E50009092B901A092BA01B092BB018092B40104
:100E60009092B501A092B601B092B701C093BC01B7
:100E70001092080102EB11E0E4E0EE2EE1E0FE2E1C
:100E8000FFE2CF2EF1E0DF2EF80111928F01F70182
:100E9000119211927F01F60171906F01872D0E94CE
:100EA0007D0261E0872D0E949402909102018917D2
:100EB00009F42AC1F701329731822082F801319773
:100EC000D08324EB31E020173107F1F68091BC018B
:100ED000882309F40CC18091B4019091B501A091CF
:100EE000B601B091B70175016401C81AD90AEA0ABE
:100EF000FB0AD701C6010597A105B10508F4F7C0A3
:100F00008092B4019092B501A092B601B092B7015F
:100F100072EBE72E71E0F72E10E000E0F701808120
:100F200081116BC08091B8019091B901A091BA0173
:100F3000B091BB0124013501481A590A6A0A7B0A9B
:100F4000F4E14F1651046104710408F456C0F8012D
:100F5000E15DFE4FD08060E08D2D0E94940286FD01
:100F6000E4C085E590E00E94BE0060E08D2D0E9407
:100F7000E0008CE00E945A0280E00E945A0290E059
:100F8000B0E0A0E03C015524442480E00E945A02D5
:100F9000582A80E00E945A02482A80E00E945A02A1
:100FA000F801EE0FFF1FEC5FFE4F90E0918380830E
:100FB00061E08D2D0E94E000C301B20167FC9A95AB
:100FC0009801220F331F220F331FA9014B555E4F8B
:100FD0003A010E94280A20E030E040E859E30E94EC
:100FE000DD0AF3016083718382839383F701D083E9
:100FF00046E160E08D2D0E946102FFEFEF1AFF0ACB
:101000000130110509F08EC08091B201882309F4E6
:101010006EC08091B301882309F469C01092BC01AD
:101020008091B101882309F499C08FEC90E00E946F
:101030001E026091AD017091AE018091AF0190915F
:10104000B0018B019C010F5F1F4F2F4F3F4F00934B
:10105000AD011093AE012093AF013093B0014AE08F
:101060000E94BC028CE20E9419024AE0C501B40150
:101070000E94BC028CE20E941902809103010E942E
:1010800019028CE20E9419026091090170E090E05F
:1010900080E04AE00E94BC0204E011E085EAE82E0C
:1010A00081E0F82E8CE20E941902F8018191919161
:1010B0008F01892B09F449C08CEC90E00E941E023C
:1010C0008CE20E941902F80132976081718190E0F0
:1010D00080E04AE00E94BC02F4E0EF0EF11C21E047
:1010E00008301207F9F681E391E00E94AF0240E078
:1010F00050E0452B09F4CDCC0E949601882309F4D9
:10110000C6CC0E940000C3CC60E0872D0E949402F0
:101110008D7B843109F0CECE44E560E0872D0E94BE
:101120006102CFCE01E010E0F9CEF4EF4F16F1E00E
:101130005F066104710408F460CFF801EE0FFF1F31
:10114000EC5FFE4F3182208251CFF70160817181C7
:101150008281938143E00E940E03B2CF81EC90E044
:101160000E941E028091040190910501892BB1F02B
:1011700083EB90E00E941E028EEA90E00E941E0225
:101180008091060190910701892BA1F080EA90E0FF
:101190000E941E028CE20E941902A5CF6091A50157
:1011A0007091A6018091A7019091A80142E00E9450
:1011B0000E03E2CF6091A9017091AA018091AB0169
:1011C0009091AC0142E00E940E03E4CFE6ECF1E026
:1011D0001382128288EE93E0A0E0B0E084839583CE
:1011E000A683B7838EE091E09183808385EC90E0C5
:1011F0009587848784EC90E09787868780EC90E0E1
:10120000918B808B81EC90E0938B828B82EC90E0D1
:10121000958B848B86EC90E0978B868B118E128E4B
:10122000138E148E08955058BB27AA270E942B09AD
:101230000C949E0A0E94900A38F00E94970A20F0AF
:1012400039F49F3F19F426F40C948D0A0EF4E095BE
:10125000E7FB0C94870AE92F0E94AF0A58F3BA17EC
:10126000620773078407950720F079F4A6F50C94BC
:10127000D10A0EF4E0950B2EBA2FA02D0B01B90167
:1012800090010C01CA01A0011124FF27591B99F0FC
:10129000593F50F4503E68F11A16F040A22F232F08
:1012A000342F4427585FF3CF469537952795A79558
:1012B000F0405395C9F77EF41F16BA0B620B730BFF
:1012C000840BBAF09150A1F0FF0FBB1F661F771F70
:1012D000881FC2F70EC0BA0F621F731F841F48F425
:1012E000879577956795B795F7959E3F08F0B0CFAE
:1012F0009395880F08F09927EE0F97958795089595
:101300000E94630A08F481E008950E9499090C94F0
:101310009E0A0E94970A58F00E94900A40F029F411
:101320005F3F29F00C94870A51110C94D20A0C9457
:101330008D0A0E94AF0A68F39923B1F3552391F304
:10134000951B550BBB27AA2762177307840738F034
:101350009F5F5F4F220F331F441FAA1FA9F335D091
:101360000E2E3AF0E0E832D091505040E695001C45
:10137000CAF72BD0FE2F29D0660F771F881FBB1FFF
:10138000261737074807AB07B0E809F0BB0B802DDD
:10139000BF01FF2793585F4F3AF09E3F510578F009
:1013A0000C94870A0C94D20A5F3FE4F3983ED4F37E
:1013B000869577956795B795F7959F5FC9F7880FDD
:1013C000911D9695879597F90895E1E0660F771F2F
:1013D000881FBB1F621773078407BA0720F0621BC0
:1013E000730B840BBA0BEE1F88F7E09508950E94EB
:1013F000B70A88F09F5798F0B92F9927B751B0F0E6
:10140000E1F0660F771F881F991F1AF0BA95C9F788
:1014100014C0B13091F00E94D10AB1E008950C944B
:10142000D10A672F782F8827B85F39F0B93FCCF3FE
:10143000869577956795B395D9F73EF49095809505
:10144000709561957F4F8F4F9F4F0895E89409C025
:1014500097FB3EF490958095709561957F4F8F4FE7
:101460009F4F9923A9F0F92F96E9BB279395F695FD
:10147000879577956795B795F111F8CFFAF4BB0F7B
:1014800011F460FF1BC06F5F7F4F8F4F9F4F16C0DF
:10149000882311F096E911C0772321F09EE8872F69
:1014A000762F05C0662371F096E8862F70E060E025
:1014B0002AF09A95660F771F881FDAF7880F96959E
:1014C000879597F90895990F0008550FAA0BE0E842
:1014D000FEEF16161706E807F907C0F012161306F6
:1014E000E407F50798F0621B730B840B950B39F436
:1014F0000A2661F0232B242B252B21F408950A269C
:1015000009F4A140A6958FEF811D811D089597F9DB
:101510009F6780E870E060E008959FEF80EC089599
:1015200000240A94161617061806090608950024C2
:101530000A9412161306140605060895092E03943C
:10154000000C11F4882352F0BB0F40F4BF2B11F4B0
:1015500060FF04C06F5F7F4F8F4F9F4F089557FD0F
:101560009058440F551F59F05F3F71F04795880F11
:1015700097FB991F61F09F3F79F0879508951216A8
:1015800013061406551FF2CF4695F1DF08C0161654
:1015900017061806991FF1CF869571056105089405
:1015A0000895E894BB2766277727CB0197F908951C
:1015B0000E94630A08F48FEF08950E94F00A0C94C9
:1015C0009E0A0E94900A38F00E94970A20F0952304
:1015D00011F00C94870A0C948D0A11240C94D20AF1
:1015E0000E94AF0A70F3959FC1F3950F50E0551F0D
:1015F000629FF001729FBB27F00DB11D639FAA2768
:10160000F00DB11DAA1F649F6627B00DA11D661FB6
:10161000829F2227B00DA11D621F739FB00DA11DD7
:10162000621F839FA00D611D221F749F3327A00D91
:10163000611D231F849F600D211D822F762F6A2F2D
:1016400011249F5750409AF0F1F088234AF0EE0F92
:10165000FF1FBB1F661F771F881F91505040A9F7BF
:101660009E3F510580F00C94870A0C94D20A5F3F8C
:10167000E4F3983ED4F3869577956795B795F795FB
:10168000E7959F5FC1F7FE2B880F911D9695879573
:1016900097F908950E94630A880B990B0895A1E2B7
:1016A0001A2EAA1BBB1BFD010DC0AA1FBB1FEE1FDC
:1016B000FF1FA217B307E407F50720F0A21BB30B27
:1016C000E40BF50B661F771F881F991F1A9469F7A3
:1016D00060957095809590959B01AC01BD01CF01FF
:1016E0000895A29FB001B39FC001A39F700D811DFB
:1016F0001124911DB29F700D811D1124911D08951B
:101700000E94710BA59F900DB49F900DA49F800D1A
:10171000911D11240895EE0FFF1F0590F491E02D07
:101720000994FB01DC018D91019080190110D9F31E
:10173000990B0895FB01DC014150504030F08D9130
:101740000190801919F40020B9F7881B990B0895AE
:04175000F894FFCF3B
:101754000154075400010001010100000000CC0104
:101764002C01590139028A0168017C0100FFFF0143
:10177400FFFFFFFF0203FFFF04FFFFFF0506070A49
:10178400090D0A006E616E00696E66006F76660070
:10179400434F4E4649473A00524553455400545925
:0A17A40050453A00524154453A0006
:00000001FF
